:020000040800F2
:1000000078050020C10100080B1F0008451B0008EF
:10001000091F0008CD02000851230008000000005D
:100020000000000000000000000000000F1F00089A
:10003000CF020008000000000D1F0008891F000803
:10004000DB010008DB010008DB010008DB01000820
:10005000DB010008DB010008DB010008DB01000810
:10006000DB010008DB010008DB010008DB01000800
:10007000DB010008DB010008DB010008DB010008F0
:10008000DB010008DB010008DB010008DB010008E0
:10009000DB010008DB010008DB010008DB010008D0
:1000A000DB010008DB010008DB010008DB010008C0
:1000B000DB010008DB010008DB010008DB010008B0
:1000C000DB010008DB010008DB010008DB010008A0
:1000D000DB01000845230008DB010008DB01000804
:1000E000DB010008DB010008DB010008DB01000880
:1000F000DB010008DB010008DB010008DB01000870
:10010000DB010008DB010008DB010008DB0100085F
:10011000DB010008DB010008DB0100083D200008CE
:10012000DB010008DB010008DB010008DB0100083F
:10013000DB010008DB010008DB010008DB0100082F
:10014000DB010008DB010008DB010008DB0100081F
:10015000DB010008DB010008DB010008DB0100080F
:10016000DB010008DB010008DB010008DB010008FF
:10017000DB010008DB010008DB01000800000000D3
:10018000DB010008DB010008DB010008DB010008DF
:10019000DB010008DB010008DB010008DB010008CF
:1001A000DB010008DB010008DB010008DFF80CD0F0
:1001B00000F07AF800480047CD23000878050020B9
:1001C0000648804706480047FEE7FEE7FEE7FEE7F1
:1001D000FEE7FEE7FEE7FEE7FEE7FEE72D2000086C
:1001E000AD0100082DE9F05F0546002092469B46D0
:1001F00088460646814640241BE02846414647463D
:10020000224600F041F853465A46C01A914110D395
:1002100011461846224600F028F82D1A67EB01080F
:100220004F4622460120002100F01FF817EB00097D
:100230004E41201EA4F10104DFDC484631462A4627
:100240004346BDE8F09FD2B201E000F8012B491E01
:10025000FBD270470022F6E710B513460A46044663
:100260001946FFF7F0FF204610BD202A04DB203A94
:1002700000FA02F1002070479140C2F1200320FAF9
:1002800003F3194390407047202A04DB203A21FAF7
:1002900002F00021704721FA02F3D040C2F120029F
:1002A0009140084319467047064C074D06E0E06848
:1002B00040F0010394E8070098471034AC42F6D3AD
:1002C000FFF778FF9C240008BC240008FEE7704775
:1002D0002DE9F0410446876D00F07EF9064694F85A
:1002E00035000025022806D08020606584F834504F
:1002F0000120BDE8F0812068016821F0160101604D
:100300002068416921F080014161206C08B9A06C2E
:1003100020B12068016821F00801016020680168AF
:1003200021F0010101600BE000F056F9801B052867
:1003300006D92020606504F8345F03206070D8E798
:1003400020680068C007EFD194F85C103F20884017
:10035000B86004F8345F012060700020C9E790F8AD
:100360003510022903D08021416501207047052105
:1003700080F835100068016821F00101016000205B
:10038000704700002DE9F84FDFF8F4A100220124A6
:100390000AF1040B03254FF00F090BF1040E00BF07
:1003A0000B6804FA02F63340B3426FD10F7907F0BD
:1003B0000307012F01D0022F16D187684FEA4208A8
:1003C00005FA08FC27EA0C07D1F80CC00CFA08FC67
:1003D0004CEA070CC0F808C04768B7430E79C6F36B
:1003E000001696403E4346600E79F643B6070AD0A3
:1003F000C7684FEA420C05FA0CF6B7438E6806FA56
:100400000CF63E43C6600E7906F00306022E10D1AC
:10041000D60800EB8608D8F8206057074FEAD76C5B
:1004200009FA0CF7BE430F6907FA0CF73743C8F80F
:10043000207006684FEA420C05FA0CF7BE430F79AC
:1004400007F0030707FA0CF7374307604E68F6001A
:100450001CD54C4E376847F480473760366822F029
:10046000030706F480460096474E07EB060CDCF8BF
:10047000086897073F0F09FA07F826EA0806DFF829
:100480000C81404503D14FF0000841E072E0DFF8F5
:100490000081404502D14FF0010839E0DFF8F480D7
:1004A000404502D14FF0020832E0DFF8EC804045D1
:1004B00002D14FF003082BE0DFF8E080404502D185
:1004C0004FF0040824E0DFF8D880404502D14FF017
:1004D00005081DE0DFF8CC80404502D14FF006084A
:1004E00016E0DFF8C480404502D14FF007080FE066
:1004F000DFF8B880404502D14FF0080808E0DFF887
:10050000B080404502D14FF0090801E04FF00A08E1
:1005100008FA07F848EA0608CCF80888DAF8006014
:100520005746D1F804C09E435FEACC3C00D51E4339
:100530003E60DBF800605F46D1F804C09E435FEA8E
:100540008C3C00D51E433E60DEF800607746D1F853
:1005500004C09E435FEACC2C00D51E433E60084F8A
:100560000C373E68D1F804C09E435FEA8C2C00D55E
:100570001E433E60521C102AFFF412AFBDE8F88FF4
:10058000003C01404438024000300140000002407D
:100590000004024000080240000C0240001002402B
:1005A0000014024000180240001C024000200240DB
:1005B000002402400069084000D0012070474269D1
:1005C00021EA02030A4043EA0241816170470AB10D
:1005D000816170470904FBE70148806870470000AB
:1005E0002400002090F83D20202A01D002207047EE
:1005F000242280F83D200268136823F00103136071
:100600000268536A23F0100353620268536A0B4373
:10061000536201680A6842F001020A60202180F8F2
:100620003D100020704790F83D20202A01D0022084
:100630007047242280F83D200268136823F00103EC
:10064000136003685A6A22F00F020A4391B259629A
:1006500001680A6842F001020A60202180F83D101A
:100660000020704770B5040025D094F83D000025A7
:1006700020B984F83C50204600F050F9242084F83A
:100680003D002068016821F00101016020680168D7
:1006900041F4004101602068016821F400410160DB
:1006A00000F040FC4D4A6168914201D84C4900E09D
:1006B0004C49884201D2012070BD4B492368B0FBF0
:1006C000F1F15E6826F03F060E435E606368934278
:1006D00006D94FF4967359434FF47A73B1FBF3F193
:1006E0002368491C1E6A26F03F063143196261687F
:1006F000914210D84900401EB0FBF1F2521CC2F3E7
:100700000B02042A01D2042022E0B0FBF1F0401CCD
:10071000C0F30B001CE0A268F2B301EBC10303EBD2
:100720000116431EB3FBF6F35B1C43F480431B0529
:1007300049D092B301EBC10202EB0111401EB0FBA4
:10074000F1F0401CC0F30B0040F4804040F4004046
:100750002168CA694CF6FF739A431043C861D4E913
:10076000071001432068026822F0C00211430160B3
:10077000D4E9030101432068826848F2FF339A43B9
:1007800011438160D4E9050108432168CA6822F059
:10079000FF021043C86001E00EE016E02068016827
:1007A00041F0010101602564202084F83D002563AB
:1007B00084F83E50002070BD01EB4106431EB3FBA0
:1007C000F6F35B1CB3E70120C2E701EB4101401ED9
:1007D000B0FBF1F0401CC0F30B00B7E7A0860100AE
:1007E00080841E0000093D0040420F002DE9FF4FAC
:1007F00083B09A46DDE9119793460446DDF84080C0
:10080000FFF7EAFE054694F83D0020287FD1192322
:10081000012240492046009501F026FA002876D1B1
:1008200094F83C00012872D0012084F83C00206834
:100830000168C90703D1016841F001010160206826
:10084000016821F400610160212084F83D0040200E
:1008500084F83E0000262664C4F82480A4F82A9078
:10086000608D20852C48E062CDE9007553465A46DC
:100870002046049901F07EF970B930E02A463946E5
:10088000204601F0A3FA58B1206C042804D1206856
:10089000016841F400710160012007B0BDE8F08FEC
:1008A000606A216800780861606A401C6062218D7E
:1008B000491E89B22185628D521E62852268536964
:1008C000DB435B070BD469B100781061606A401CA0
:1008D0006062208D401E2085608D401E6085208DC9
:1008E0000028CBD12A463946204601F097F9002846
:1008F000CAD154F83D0B016841F400710160202019
:1009000004F81E09E67766770020C6E7FFE70220B5
:10091000C3E70000020010000000FFFF10B586B022
:10092000044614216846FFF795FC13492068884265
:1009300020D11248016841F0020101600068694657
:1009400000F002000590C0200090122001900120CC
:10095000029003200390042004900948FFF712FD41
:1009600006481030016841F400110160006800F48D
:100970000010059006B010BD005400403038024011
:10098000000402402DE9F84F9A4615468846044671
:10099000FFF722FE064694F83D0020287ED1B8F1EC
:1009A000000F32D08DB394F83C00012876D001209E
:1009B00084F83C0020680168C90703D1016841F050
:1009C000010101602068016821F4006101602220BA
:1009D00084F83D00202784F83E704FF00009C4F8E9
:1009E0004090C4F824806585608D20853E48E06293
:1009F0002068016841F48061016053464A463B49E2
:100A00002046009601F030F910B10120BDE8F88FC2
:100A100020684D4641698069009024E03246514685
:100A2000204601F0A0F9D0BB20680069616A087017
:100A3000606A401C6062218D491E8AB22285618DE8
:100A4000491E618521684B69DB435B070BD46AB1A2
:100A500009690170606A401C6062208D401E20851B
:100A6000608D401E6085208D0028D7D1D0460BE0D8
:100A7000204601F068F890B9FFF7AEFD811B4145B3
:100A80001ED8B8F1000F1BD020684069C043C006D3
:100A9000EED4206841690091016801E021E01AE08C
:100AA00041F0010101602068016821F4806101606A
:100AB00084F83D7084F83E5084F83C500020A5E74F
:100AC000204640F8305F47738573006940F020018D
:100AD000216484F83C502068016821F48061016041
:100AE00093E7022092E700000000FFFF02000100F0
:100AF0002DE9F84F9A4616460F460446FFF76CFD5F
:100B0000054694F83D0020287DD1002F55D0002EB9
:100B100053D094F83C00012875D0012084F83C00A3
:100B200020680168C90703D1016841F00101016033
:100B30002068016821F400610160212084F83D00F3
:100B40004FF0200984F83E904FF00008C4F8408030
:100B500067626685608D20853A48E062206801689A
:100B600041F480610160384F534642463946204681
:100B7000009501F079F800BB20684646416980691C
:100B800000902069B0F5404F37D1534600223946D6
:100B90002046009501F068F878B9206841698069BD
:100BA00000902AE02A465146204601F00FF928B16C
:100BB0002068016821F4806101602CE0606A21688E
:100BC00000780861606A401C6062618D491E618521
:100BD000218D491E89B2218522685369DB435B0759
:100BE0000BD469B100781061606A401C6062608D4E
:100BF000401E6085208D401E2085208D0028D1D18B
:100C00005346002200E01AE04FF48231204600955E
:100C100001F02AF810B10120BDE8F88F21686FF4C7
:100C2000806048612068016821F48061016084F877
:100C30003D9084F83E6084F83C600020ECE70220A0
:100C4000EAE700000000FFFF02000100024881689F
:100C50000278114481607047240000200B4810B5D1
:100C6000016841F400710160016841F48061016034
:100C7000016841F480710160032000F06FF80020EA
:100C800000F006F800F024F8002010BD003C0240FF
:100C900070B50D4D04464FF47A712878B1FBF0F031
:100CA0000A490968B1FBF0F000F044FB48B9102C88
:100CB00007D200222146501E00F030F800206C6060
:100CC00070BD012070BD0000240000203000002015
:100CD0000A4808B5016841F480410160006800F4E9
:100CE000804000900548001F016841F0805101607C
:100CF000006800F08050009008BD000044380240B9
:100D0000002809DB00F01F0201219140400980000A
:100D100000F1E020C0F8001170470000F0B40E4B65
:100D20001B680C46C3F30223C3F10705042D00D949
:100D30000425191D072901D2002300E0DB1E01262E
:100D400006FA05F1491E214099409E40761E164044
:100D50003143F0BC01F0FDBA0CED00E0064900F0B3
:100D6000070208684FF6FF03184040EA0220034AD2
:100D700010430860704700000CED00E00000FA0529
:100D80002DE9F8431748016841F08051016000687F
:100D9000154F00F08050012600903E64FFF71CFCC8
:100DA00005464FF47A78114C05E000BFFFF714FCBC
:100DB000401B40450DD86068C003F7D57E64FFF73F
:100DC0000BFC0546464607E0FFF706FC401BB04219
:100DD00002D90320BDE8F88360688003F4D50020C1
:100DE000F8E700004038024000000E42007000406A
:100DF0002DE9F0470E46050065D0DFF81481D8F8DC
:100E00000000F7B200F00F00B04207D288F800707F
:100E1000D8F8000000F00F00B04254D128683D4CD3
:100E2000810712D5400703D5206840F4E0502060C8
:100E30002878000703D5206840F4604020602068CF
:100E4000A96820F0F000084320602878C0072DD062
:100E5000304968680839012812D0022813D00328C5
:100E600011D00968890700292DDA216821F00301D2
:100E700001432160FFF7B0FB814641F2883A0EE062
:100E800009688903EFE709688901ECE7FFF7A4FB2C
:100E9000A0EB0901514502D90320BDE8F087206885
:100EA000696800F00C00B0EB810FEFD1D8F80010AA
:100EB000404601F00F01B14207D90770006800F009
:100EC0000F00B04201D00120E7E72878400705D5A0
:100ED0002068E96820F4E050084320602878000783
:100EE00006D52068296920F4604040EAC1002060EE
:100EF00000F038F82168084AC1F30311515CC8407A
:100F00000649086006480068FFF7C2FE0020C4E7F3
:100F1000003C0240083802408424000830000020D1
:100F2000280000200448054900680968044AC1F304
:100F30008221515CC84070473000002008380240D0
:100F4000942400080448054900680968044AC1F36C
:100F50004231515CC84070473000002008380240E0
:100F600094240008154810B5006810F00C021448CD
:100F700013D01449042A0FD0082A0ED10F4C241F75
:100F80002268236802F03F025B0207D52068C0F3A5
:100F90008810A0FB010106E0084610BD2168C1F3DE
:100FA0008811A1FB00010023FFF71CF92168C1F3A0
:100FB0000141491C4900B0FBF1F010BD0838024066
:100FC0000024F40040787D012DE9F84F04006ED034
:100FD0002078DFF84C93C007A9F104054AD009F145
:100FE00004000168C1F38101012908D00068C0F341
:100FF000810002280AD1D9F80000400206D52868ED
:10100000800337D560680028E1D033E06068B0F530
:10101000803F10D0B0F5A02F286810D020F4803089
:101020002860286820F4802028606068A8B1FFF755
:10103000D3FA06460DE0286840F48030F4E740F427
:1010400080202860F7E700BFFFF7C6FA801B6428FE
:1010500073D828688003F7D50CE0FFF7BDFA064681
:1010600005E000BFFFF7B8FA801B6428F0D82868B5
:101070008003F7D42078DFF8AC8280074FF0000AB5
:101080003ED5A748001D016811F00C0F08D000687C
:10109000C0F3810002280BD1D9F80000400207D428
:1010A0002868800716D5E068012800D112E033E1F6
:1010B000E068B8B10120C8F80000FFF78DFA0646D5
:1010C00005E000BFFFF788FA801B0228C0D8286817
:1010D0008007F7D52868216920F0F80040EAC100B0
:1010E00028600DE0C8F800A0FFF776FA064604E095
:1010F000FFF772FA801B02281FD828688007F7D4F0
:101100002078000722D5864F87486169703771B112
:1011100001210160FFF760FA064604E0FFF75CFA80
:10112000801B022809D838688007F7D50EE0C0F880
:1011300000A0FFF751FA064605E082E0FFF74CFAFF
:10114000801B02287DD838688007F7D420784007B4
:1011500068D5DFF8CCB100270BF13C0BDBF80000C1
:10116000C0000BD4DBF8001041F08051CBF8001028
:10117000DBF80000012700F0805000906B4E3068D3
:10118000C00510D4306840F480703060FFF724FA56
:10119000009005E0FFF720FA0099401A022850D885
:1011A0003068C005F6D55E4EA0686C3601280FD0B9
:1011B0000528306810D020F001003060306820F041
:1011C00004003060A068B8B1FFF706FA00900FE0A5
:1011D000306840F00100F4E740F004003060F7E7C9
:1011E000FFF7FAF90099411A41F28830814266D836
:1011F00030688007F4D50EE0FFF7EEF9009007E0C5
:10120000FFF7EAF90099411A41F28830814256D835
:1012100030688007F4D42FB1DBF8001021F0805142
:10122000CBF80010A069C8B33D49091D0968C1F396
:10123000810102294AD00228504607D0C8F8600030
:1012400000E03CE0FFF7C8F904463BE04746C8F839
:101250006000FFF7C1F9064605E000BFFFF7BCF9E3
:10126000801B02282BD828688001F7D4D4E9070115
:101270000843A16A2E4A490802EB0141626A41EA29
:101280008211084394F82C1040EA0161C9F800105B
:1012900001203866FFF7A0F9044606E03EE000BFF3
:1012A000FFF79AF9001B022809D828688001F7D5B2
:1012B00034E000BFFFF790F9001B022802D9032099
:1012C000BDE8F88F28688001F4D427E00128F7D022
:1012D000D9F80000E26900F4800191421CD1226A31
:1012E00000F03F01914217D147F6C071626A014098
:1012F000B1EB821F10D1A26A4FF0FF3300F44031EE
:1013000003EB5202B1EB024F06D194F82C1000F01F
:101310007060B0EB016F01D00120D1E70020CFE772
:101320000438024000004742800E474200700040EF
:101330000000FFFF10B5401EB0F1807F01D30120F7
:1013400010BD4FF0E02460610F21601701F001F83B
:101350000020A06107202061002010BD7047704769
:1013600070B590F83C20012A32D0012480F83C402E
:10137000022280F83D2003685A689D6822F07006BA
:101380000A6832435A60134B02689A4214D0B2F191
:10139000804F11D0104B9A420ED0104B9A420BD076
:1013A0000F4B9A4208D00F4B9A4205D00E4B9A42EF
:1013B00002D00E4B9A4204D1496825F080031943AC
:1013C000916080F83D40002180F83C10084670BDD7
:1013D000022070BD000001400004004000080040F1
:1013E000000C004000040140004001400018004093
:1013F00010B5040003D094F83D0010B107E00120BF
:1014000010BD002084F83C00204600F01FF80220A8
:1014100084F83D00211D206800F016FE012084F8AC
:10142000460084F83E0084F83F0084F8400084F8C9
:10143000410084F8420084F8430084F8440084F8B2
:10144000450084F83D00002010BD000008B500688C
:101450000B49884212D10B48016841F0200101601C
:101460000068002200F02000009011463720FFF7AE
:1014700055FCBDE808403720FFF742BC08BD00001E
:10148000001400404038024090F83D10012901D07E
:1014900001207047022180F83D100168CA6842F0BF
:1014A0000102CA6000681149884214D0B0F1804F2F
:1014B00011D00F4988420ED00E4988420BD00E49F8
:1014C000884208D00D49884205D00D49884202D093
:1014D0000C49884204D1816801F00701062903D034
:1014E000016841F0010101600020704700000140E7
:1014F0000004004000080040000C004000040140CF
:101500000040014000180040704770B50446006874
:1015100001694FF00005C943890715D4C168C94363
:10152000890711D4E91E01610120207720688069B4
:101530008007204602D0FFF7E7FF04E000F098F8AC
:10154000204600F096F8257720680169C9434907CD
:1015500017D4C168C943490713D46FF0040101616E
:10156000022020772068806910F4407F204602D056
:10157000FFF7CAFF04E000F07BF8204600F079F89E
:10158000257720680169C943090716D4C168C94392
:10159000090712D46FF00801016104202077206848
:1015A000C0698007204602D0FFF7AEFF04E000F0DC
:1015B0005FF8204600F05DF8257720680169C9438F
:1015C000C90617D4C168C943C90613D46FF0100106
:1015D0000161082020772068C06910F4407F204610
:1015E00002D0FFF791FF04E000F042F8204600F03F
:1015F00040F8257720680169C943C90708D1C16847
:10160000C943C90704D1891E0161204600F032F8A0
:1016100020680169C943090609D4C168C94309069C
:1016200005D46FF0800101612046FFF797FE206826
:101630000169C943490609D4C168C943490605D4AB
:101640006FF040010161204600F09EF820680169BA
:10165000C94389060BD4C168C943890607D46FF012
:10166000200101612046BDE87040FFF778BE70BDE3
:10167000704770472DE9FE433E496FF0010009684D
:1016800008613C48642302223B495438FFF77AF949
:10169000394C394E0E3C002520713078042809D190
:1016A00034480A230222711C5438FFF721FA35709E
:1016B00002202071607901280BD16571207AA2790E
:1016C000E1798DE80700637AA27AE17A207B00F065
:1016D0001FFCA078012601280FD12648A5703221D1
:1016E000863800F055FE2349863991F83120904222
:1016F00003D10878AB2800D1E6701E4F2078DFF8C0
:101700007C80B83FA8B96069052812D132213846DB
:1017100000F03EFE87F831006561394626703222BE
:1017200001F5807000F0EEF94FF400514046FEF7ED
:1017300046FF01211248FEF73DFF012809D10D495E
:10174000F1203871B839052201F5807000F0DAF91E
:1017500025706069401C6061142801D9656125709D
:101760004FF480514046FEF72AFF06480068A0610A
:10177000BDE8FE83EC0000200E00002000180240AF
:101780000000024024140040704770470168CA6896
:1017900022F04002CA600168CA6822F08002CA6072
:1017A00090F83D10232904D05FF0200180F83D100F
:1017B00070472221FAE70000F8B502680446106875
:1017C000D168536910F00F0F4FF0000553D003F0AC
:1017D000010601F4907737435FD0C20705D0CA05F0
:1017E00003D5226C42F001022264420705D5DA07D4
:1017F00003D0226C42F002022264820705D5DA0788
:1018000003D0226C42F004022264020707D501F0E3
:101810002002324303D0226C42F008022264226C80
:10182000002A34D0800604D5880602D5204600F070
:101830008FFC20684069216CC0F38010090700D438
:1018400030B3204600F06CFC2068416949061BD586
:10185000416921F040014161A06BA8B1594901657E
:10186000A06BFEF77CFD002811D0A06B016D01B0CC
:10187000BDE8F040084783060FD58B060DD52046FE
:10188000BDE8F84000F064BC2046FFF77FFFF8BDDC
:101890002046FFF77BFF2564F8BD266B2023012E31
:1018A00053D1C60651D5CE064FD51068506800906A
:1018B000506940062BD5A16B086840680004000CF5
:1018C000EAD0A68D8642E7D9E085C869B0F5807F69
:1018D00018D0D06820F48070D0602068416921F071
:1018E000010141612068416921F04001416184F8B2
:1018F0003E3025632068C16821F01001C160A06BF3
:10190000FEF7E6FCA08DE18D401A81B219E0A08DB2
:10191000E18D401A81B2E08D0028BDD00029BBD0F6
:10192000D06820F49070D0602068426922F00102F3
:10193000426184F83E3025632068C26822F01002BC
:10194000C2602046FFF721FFF8BD05062BD50D0626
:1019500029D594F83D002128F6D1A068B0F5805F24
:1019600001D12069B0B1206A411C21622168007850
:101970004860E08C401E0004000CE084E4D1206844
:10198000C16821F08001C1602068C16841F0400158
:10199000C160F8BD206A0088C0F308005060206A6A
:1019A000801C2062E5E74006F3D54806F1D5D168F2
:1019B000204621F04001D16084F83D3000F0C1F8AC
:1019C000F8BD00001121000870B5040004D094F89F
:1019D0003D00002510B106E0012070BD84F83C50A8
:1019E000204600F023F8242084F83D002068C168D8
:1019F00021F40051C160204600F002FC206801691A
:101A000021F4904101612068416921F02A0141617E
:101A10002068C16841F40051C1602564202084F829
:101A20003D0084F83E00002070BD000010B586B077
:101A3000044614216846FEF70DFC184920688842C8
:101A400029D117480021026842F0100202600068A4
:101A500000F01000059012481438026842F00102AC
:101A60000260006800F0010005904FF4C060009033
:101A70000220CDE90101032003900720049069466C
:101A80000848FEF77FFC002211462520FFF746F9A3
:101A90002520FFF735F906B010BD00000010014009
:101AA000443802400000024090F83E30202B0ED116
:101AB00059B152B190F83C30012B08D0012380F885
:101AC0003C300023036300F021BC0120704702205A
:101AD00070470000084910B588420CD13222CE3937
:101AE0000548FFF7E1FF4FF480410448FEF767FD2A
:101AF00003490120887010BD340100200018024005
:101B00000000002090F83D30202B18D1A9B1A2B1DF
:101B100090F83C30012B12D001628284C2840021F3
:101B20000164212280F83D2080F83C100068C168E3
:101B300041F08001C1600020704701207047022001
:101B400070477047FEE701684A69D24352050FD4D7
:101B50006FF480624A61002140F8301F20224273F6
:101B60008173026942F0040202610173012070472F
:101B7000002070472DE9F843044600680D46DDE972
:101B8000089701689846164641F4807101604B46FB
:101B900000224FF001112046009700F065F848B18F
:101BA00020680068C00502D54FF40070206403204F
:101BB000BDE8F883216805F0FE0008613B464A460F
:101BC0001549204600F084F888B920684169806989
:101BD00000903A464946204600F0F8F848B1206C9B
:101BE000042804D12068016841F4007101600120DB
:101BF000DEE7F5B2B8F1010F09D02168300A0861BB
:101C00003A464946204600F0E1F80028E7D120682E
:101C100005610020CCE700000200010070B5164607
:101C20000D4604460DE02046FFF78DFF08B1012068
:101C300070BD681C05D0FEF7CFFC801BA84207D8FA
:101C400035B120684069C0434007ECD4002070BD26
:101C5000002044F8300F20216173A073216941F006
:101C6000200121612073E2E72DE9F0471E469046EE
:101C70000D460446C1F30747DDF8209008E0701CCC
:101C800006D0FEF7A9FCA0EB0900B0420FD876B150
:101C90002068012F18D0806925EA00000004000C9C
:101CA00014D000214145EAD00020BDE8F087002093
:101CB00044F8300F20216173A073216941F02001A5
:101CC000216120730120F0E74069E5E70121E9E7A0
:101CD0002DE9F0479A4691460E46044600254FF0FE
:101CE0002008C1F3074725E020684069C04340054C
:101CF00014D42068016841F40071016021686FF418
:101D000080604861256384F83D8084F83E50206CF3
:101D100040F00400206484F83C501FE0B9F1FF3F1C
:101D200008D0FEF759FCA0EB0A0149450CD8B9F1DF
:101D3000000F09D02068012F13D0806926EA000027
:101D40000004000C0BD0CFE744F8305F84F80D801E
:101D5000A573206940F02000206125730120BDE8B3
:101D6000F0874069EAE72DE9F041002590460E46EC
:101D70000446202717E04069C043C0060CD454F83D
:101D8000301B6FF01000486144F810596777A57751
:101D9000206A2062257717E0FEF71EFCA0EB080002
:101DA000B04208D83EB120684169C9434906E2D42F
:101DB0000020BDE8F08144F8305F6773A5732069A7
:101DC00040F02000206125730120F2E770B516462F
:101DD0000D4604460DE02046FFF7B5FE08B1012090
:101DE00070BD681C05D0FEF7F7FB801BA84207D822
:101DF00035B120684069C0430006ECD4002070BDB6
:101E0000002044F8300F20216173A073216941F054
:101E1000200121612073E2E7F0B587B01421684604
:101E2000FEF718FA1E480024016841F080010160A5
:101E3000016801F080010591016841F00101016034
:101E4000016801F001010591016841F04001016064
:101E5000016801F040010591016841F00201016053
:101E60000068104F00F002004FF4E0460590002299
:101E700031463846FEF7ABFB012502200095CDE93F
:101E8000014069460848FEF77DFA0096CDE9015405
:101E9000694638460394FEF775FA07B0F0BD0000B6
:101EA000303802400018024000000240144810B5CB
:101EB000124901601349416000212422C0E9021245
:101EC0004FF480420261012242612822C0E90621CA
:101ED0000162FEF7C7FB08B172B6FEE700210848B1
:101EE000FEF780FB08B172B6FEE700210448FEF75A
:101EF0009AFB002801D072B6FEE710BD00540040E6
:101F000098000020A0860100FEE7FEE770477047BA
:101F10002DE9F04186B00F460CA9984691E83800AB
:101F2000164600F048FA8DF80C00384600F043FAE7
:101F30008DF80D00304600F03EFA8DF80E00404658
:101F400000F039FA8DF80F00184600F034FA8DF8D9
:101F50001000204600F02FFA8DF81100284600F0FE
:101F60002AFA8DF812004FF47A72072103A88DE83F
:101F7000070001230022D0210248FEF737FC06B0FB
:101F8000BDE8F08198000020FEF760BE30B593B048
:101F900030216846FEF75EF914210CA8FEF75AF9C5
:101FA00020480025016841F080510160006800F080
:101FB000805011901C48016841F440410160006864
:101FC000022400F44040119001200390102004905E
:101FD000009406940820CDE90750B420CDE9090407
:101FE00004200B906846FEF7EFFF08B172B6FEE7DB
:101FF000FEF7C6FE08B172B6FEE70CA90F2081E815
:1020000031004FF4A0500F904FF4805010900521F4
:102010000CA8FEF7EDFE002801D072B6FEE713B063
:1020200030BD0000403802400070004002480168A6
:1020300041F470010160704788ED00E00148FFF74E
:1020400064BA0000EC000020F0B50268254C264D73
:10205000264E274F274B4FF0804CA04209D06045B9
:1020600007D0A84205D0B04203D0B84201D0984270
:1020700004D122F0700E4A6842EA0E02A0421BD040
:10208000604519D0A84217D0B04215D0B84213D03D
:10209000984211D0184DA8420ED0184DA8420BD02E
:1020A000174DA84208D0174DA84205D0164DA8429A
:1020B00002D0164DA84203D122F44075CA682A43C3
:1020C0004D6922F080022A4302608A68C2620A686F
:1020D0008262A04201D0984201D1096901630121C5
:1020E0004161F0BD000001400004004000080040D4
:1020F000000C004000040140004001400044014049
:102100000048014000180040001C00400020004032
:1021100010B5806B0021C185C184FFF737FB10BD6E
:102120000168CA6822F49072CA6001684A6922F0A4
:1021300001024A61016B012904D10168CA6822F0D9
:102140001002CA60202180F83E1000210163704710
:1021500010B5044690F83E00222801D0022010BDA0
:10216000A1684FF48052914201D1206920B1A06A48
:1021700091421BD049B10AE02168A06A4968C1F3C5
:1021800008010180A06A801C08E0216971B1216802
:10219000496801F07F010170A06A401CA062E08DD7
:1021A000401E0004000CE08503D01CE02168496853
:1021B000F1E72068C16821F02001C1602068C16892
:1021C00021F48071C1602068416921F00101416101
:1021D000202084F83E00206B012806D02046FFF71F
:1021E00079FC00202063002010BD2068C16821F028
:1021F0001001C160A18D2046FFF7C7FAF1E700008A
:1022000070B5044600680169E26821F44051114349
:1022100001612169A068E2690843616911430843CB
:102220002168CA6849F20C639A430243CA60206875
:102230004169A26921F4407111434161314920682B
:10224000884202D03049884202D1FEF77BFE01E08D
:10225000FEF768FEE2690023192164253226B2F5F3
:10226000004F626828D0A0FB0101930F9200FDF798
:10227000B9FF0146B0FBF5F06FF01802504301EBD7
:10228000800006EB0010B0FBF5F000F0F002B1FBAF
:10229000F5F002EB0012B1FBF5F06FF018035843B4
:1022A00001EB800006EB0010B0FBF5F000F00F0032
:1022B00021681044886070BDA0FB010192185B4149
:1022C000FDF790FF0146B0FBF5F00201B1FBF5F020
:1022D0006FF01803584301EB800006EBC000B0FB21
:1022E000F5F000F0F80002EB4002B1FBF5F05843C6
:1022F00001EB800006EBC000B0FBF5F000F007003A
:10230000D6E7000000100140001401408162828580
:10231000C28500210164222280F83E2080F83C1012
:102320000168CA6842F48072CA6001684A6942F072
:1023300001024A610068C16841F02001C1600020CB
:10234000704700000148FFF737BA00003401002051
:10235000FEE70907090E002804DB00F1E02080F801
:102360000014704700F00F0000F1E02080F8141D09
:10237000704702E008C8121F08C1002AFAD170474E
:102380007047002001E001C1121F002AFBD17047F5
:1023900030B500224318491E03F8012C06E0845C86
:1023A00013F8015C521C2C4403F8014C8A42F6DB02
:1023B00090F8310030BD0A2190FBF1F201FB1202CE
:1023C00090FBF1F002EB0010C0B270471CB5FEF7B5
:1023D00045FCFFF7DBFDFFF71FFD0024264D0094B1
:1023E0002448019428600E20C5E901044EF65F20C0
:1023F000AC61E8602846FEF7FBFF08B172B6FEE765
:10240000009469461C480194FEF7AAFF08B172B611
:10241000FEE719481949483001604FF41651C0E9E8
:1024200001140C21C460C0E904418461C461FFF758
:10243000CBFA08B172B6FEE7FFF738FD0E4932223B
:10244000863901F1CE00FFF72FFB29686FF00100FC
:1024500008610948FFF718F8094841780648B83874
:10246000017001214170102180F82F10F12180F8B6
:102470002E10FEE700140040EC0000200010014088
:102480000000002000000000000000000102030422
:10249000060708090000000001020304BC2400082C
:1024A000000000203400000072230008F02400081F
:1024B00034000020440500008223000800AB000027
:1024C00000000000000000000000001005000000F7
:1024D00000000000000000000000000000000000FC
:1024E0000100000010000000000000000024F400C3
:04000005080001AD41
:00000001FF
